{
  "transactions": [
    {
      "hash": "0xb50a9bfa8019ab1bdc5f11a28b4bb89a9207dba03918a14a227c9b782f266fbb",
      "transactionType": "CALL",
      "contractName": null,
      "contractAddress": "0x8da83ff5533e7842076f0b66db1dd3c5de06c395",
      "function": "propose(uint16,bytes,uint256,string)",
      "arguments": [
        "2",
        "0x",
        "123456",
        "Initiating create ideas layer"
      ],
      "transaction": {
        "from": "0x328735d26e5ada93610f0006c32abe2278c46211",
        "to": "0x8da83ff5533e7842076f0b66db1dd3c5de06c395",
        "gas": "0x4a8fe",
        "value": "0x0",
        "input": "0x2e2d825300000000000000000000000000000000000000000000000000000000000000020000000000000000000000000000000000000000000000000000000000000080000000000000000000000000000000000000000000000000000000000001e24000000000000000000000000000000000000000000000000000000000000000a00000000000000000000000000000000000000000000000000000000000000000000000000000000000000000000000000000000000000000000000000000001d496e6974696174696e6720637265617465206964656173206c61796572000000",
        "nonce": "0x1b44",
        "chainId": "0xaa36a7"
      },
      "additionalContracts": [],
      "isFixedGasLimit": false
    },
    {
      "hash": "0xb0bb2d242273fb67cfd9dc1ab33078542e8b0931bda3e9a12607452e9a1d316c",
      "transactionType": "CALL",
      "contractName": null,
      "contractAddress": "0x8da83ff5533e7842076f0b66db1dd3c5de06c395",
      "function": "castVote(uint256,uint8)",
      "arguments": [
        "72196277907236296426816902759857868165188258304756366908687438239834802555370",
        "1"
      ],
      "transaction": {
        "from": "0xea223f81d7e74321370a77f1e44067be8738b627",
        "to": "0x8da83ff5533e7842076f0b66db1dd3c5de06c395",
        "gas": "0x15dd7",
        "value": "0x0",
        "input": "0x567813889f9da52cb3dd1cc07f93ef97205611b977ca0afe6cdc9bc5e542ccd7f2b109ea0000000000000000000000000000000000000000000000000000000000000001",
        "nonce": "0x5c",
        "chainId": "0xaa36a7"
      },
      "additionalContracts": [],
      "isFixedGasLimit": false
    },
    {
      "hash": null,
      "transactionType": "CALL",
      "contractName": null,
      "contractAddress": "0x8da83ff5533e7842076f0b66db1dd3c5de06c395",
      "function": "castVote(uint256,uint8)",
      "arguments": [
        "72196277907236296426816902759857868165188258304756366908687438239834802555370",
        "1"
      ],
      "transaction": {
        "from": "0x1bfdb91b283d7ec24012d7ff5a5b29005140d09a",
        "to": "0x8da83ff5533e7842076f0b66db1dd3c5de06c395",
        "gas": "0x15dd7",
        "value": "0x0",
        "input": "0x567813889f9da52cb3dd1cc07f93ef97205611b977ca0afe6cdc9bc5e542ccd7f2b109ea0000000000000000000000000000000000000000000000000000000000000001",
        "nonce": "0x0",
        "chainId": "0xaa36a7"
      },
      "additionalContracts": [],
      "isFixedGasLimit": false
    },
    {
      "hash": null,
      "transactionType": "CALL",
      "contractName": null,
      "contractAddress": "0x8da83ff5533e7842076f0b66db1dd3c5de06c395",
      "function": "castVote(uint256,uint8)",
      "arguments": [
        "72196277907236296426816902759857868165188258304756366908687438239834802555370",
        "1"
      ],
      "transaction": {
        "from": "0x328735d26e5ada93610f0006c32abe2278c46211",
        "to": "0x8da83ff5533e7842076f0b66db1dd3c5de06c395",
        "gas": "0x15dd7",
        "value": "0x0",
        "input": "0x567813889f9da52cb3dd1cc07f93ef97205611b977ca0afe6cdc9bc5e542ccd7f2b109ea0000000000000000000000000000000000000000000000000000000000000001",
        "nonce": "0x1b45",
        "chainId": "0xaa36a7"
      },
      "additionalContracts": [],
      "isFixedGasLimit": false
    }
  ],
  "receipts": [
    {
      "status": "0x1",
      "cumulativeGasUsed": "0x12d90f2",
      "logs": [
        {
          "address": "0x8da83ff5533e7842076f0b66db1dd3c5de06c395",
          "topics": [
            "0xb5856a9700a7e851456d3a16348b4ae0fbb11b06ac0af8dbe8e8652c57cc4cbd",
            "0x9f9da52cb3dd1cc07f93ef97205611b977ca0afe6cdc9bc5e542ccd7f2b109ea",
            "0x000000000000000000000000328735d26e5ada93610f0006c32abe2278c46211",
            "0x0000000000000000000000000000000000000000000000000000000000000002"
          ],
          "data": "0x00000000000000000000000000000000000000000000000000000000000000c000000000000000000000000000000000000000000000000000000000000000e00000000000000000000000000000000000000000000000000000000000a504190000000000000000000000000000000000000000000000000000000000a50432000000000000000000000000000000000000000000000000000000000001e240000000000000000000000000000000000000000000000000000000000000010000000000000000000000000000000000000000000000000000000000000000000000000000000000000000000000000000000000000000000000000000000000000000000000000000000000000000000000000000000000000000000000001d496e6974696174696e6720637265617465206964656173206c61796572000000",
          "blockHash": "0x56ab9ad2d566001e63d71947781b3d2e902db530d0c606a14383f9933efcd233",
          "blockNumber": "0xa50419",
          "blockTimestamp": "0x69fde210",
          "transactionHash": "0xb50a9bfa8019ab1bdc5f11a28b4bb89a9207dba03918a14a227c9b782f266fbb",
          "transactionIndex": "0x78",
          "logIndex": "0x285",
          "removed": false
        }
      ],
      "logsBloom": "0x04000000000000000000000000000000000000000000000000000040000000010000000000000000000000000000000000000000000000000000000000000000000000000000000000000000000000000000000000000000000000000000000000000000000000000000000000000000000000000001000000000000000000000000000000000000000000000000000000000000000000000000000000020000000000000000000000000100000000000000000000000000000000000000000000000000000000100000000000008004000000000000000100000000000000000100000000000020000000000000000000000000008000000000000040000000",
      "type": "0x2",
      "transactionHash": "0xb50a9bfa8019ab1bdc5f11a28b4bb89a9207dba03918a14a227c9b782f266fbb",
      "transactionIndex": "0x78",
      "blockHash": "0x56ab9ad2d566001e63d71947781b3d2e902db530d0c606a14383f9933efcd233",
      "blockNumber": "0xa50419",
      "gasUsed": "0x32fb9",
      "effectiveGasPrice": "0xf4259",
      "from": "0x328735d26e5ada93610f0006c32abe2278c46211",
      "to": "0x8da83ff5533e7842076f0b66db1dd3c5de06c395",
      "contractAddress": null
    },
    {
      "status": "0x1",
      "cumulativeGasUsed": "0x9109b0",
      "logs": [
        {
          "address": "0x8da83ff5533e7842076f0b66db1dd3c5de06c395",
          "topics": [
            "0x5be2678cab71c7d94235767eb1df3c57673f19e805cdc0edbd2e74854ae9f0f9",
            "0x000000000000000000000000ea223f81d7e74321370a77f1e44067be8738b627",
            "0x9f9da52cb3dd1cc07f93ef97205611b977ca0afe6cdc9bc5e542ccd7f2b109ea",
            "0x0000000000000000000000000000000000000000000000000000000000000001"
          ],
          "data": "0x00000000000000000000000000000000000000000000000000000000000000200000000000000000000000000000000000000000000000000000000000000000",
          "blockHash": "0x20b4836e47ac8a3c7dcdd7d4548cfe499cec946ef1c2ece306562892deb8b49a",
          "blockNumber": "0xa5041a",
          "blockTimestamp": "0x69fde21c",
          "transactionHash": "0xb0bb2d242273fb67cfd9dc1ab33078542e8b0931bda3e9a12607452e9a1d316c",
          "transactionIndex": "0x45",
          "logIndex": "0x136",
          "removed": false
        }
      ],
      "logsBloom": "0x00000100000000000000000008000000000000000000000000000040000000010000000000000000001000000000000000000000000000000000000000040000000000000000000000000000000000000000000000040000000000000000000000000000000000000000000000000000000000000000000000000000000000000000000000000000000000000000000000000000000000000000000000022000000000000000000000000000001000000000000000000000000000000000000000000000000000100008000000000004000000000000000000000000000040000000000000000020000000000000000000000000000000000000000000000000",
      "type": "0x2",
      "transactionHash": "0xb0bb2d242273fb67cfd9dc1ab33078542e8b0931bda3e9a12607452e9a1d316c",
      "transactionIndex": "0x45",
      "blockHash": "0x20b4836e47ac8a3c7dcdd7d4548cfe499cec946ef1c2ece306562892deb8b49a",
      "blockNumber": "0xa5041a",
      "gasUsed": "0xfd48",
      "effectiveGasPrice": "0xf4259",
      "from": "0xea223f81d7e74321370a77f1e44067be8738b627",
      "to": "0x8da83ff5533e7842076f0b66db1dd3c5de06c395",
      "contractAddress": null
    }
  ],
  "libraries": [],
  "pending": [],
  "returns": {},
  "timestamp": 1778246184205,
  "chain": 11155111,
  "commit": "318fcb9"
}