{
  "transactions": [
    {
      "hash": "0xdc58a0b2cab791ef62d19d31a4f091f9978a1fd03d377a9dceb8e5fb677c633a",
      "transactionType": "CALL",
      "contractName": null,
      "contractAddress": "0x8da83ff5533e7842076f0b66db1dd3c5de06c395",
      "function": "propose(uint16,bytes,uint256,string)",
      "arguments": [
        "2",
        "0x",
        "123456654645",
        "Initiating create ideas layer"
      ],
      "transaction": {
        "from": "0x328735d26e5ada93610f0006c32abe2278c46211",
        "to": "0x8da83ff5533e7842076f0b66db1dd3c5de06c395",
        "gas": "0x40a94",
        "value": "0x0",
        "input": "0x2e2d8253000000000000000000000000000000000000000000000000000000000000000200000000000000000000000000000000000000000000000000000000000000800000000000000000000000000000000000000000000000000000001cbe970d3500000000000000000000000000000000000000000000000000000000000000a00000000000000000000000000000000000000000000000000000000000000000000000000000000000000000000000000000000000000000000000000000001d496e6974696174696e6720637265617465206964656173206c61796572000000",
        "nonce": "0x1b45",
        "chainId": "0xaa36a7"
      },
      "additionalContracts": [],
      "isFixedGasLimit": false
    },
    {
      "hash": "0x879f9f2cbb2b2c9c0083b1b6ef4b7dedf4aad5b63648f55971c94a94050c3b4f",
      "transactionType": "CALL",
      "contractName": null,
      "contractAddress": "0x8da83ff5533e7842076f0b66db1dd3c5de06c395",
      "function": "castVote(uint256,uint8)",
      "arguments": [
        "29074313399741957111417415205399261343401142954546714851683434981440578138329",
        "1"
      ],
      "transaction": {
        "from": "0xea223f81d7e74321370a77f1e44067be8738b627",
        "to": "0x8da83ff5533e7842076f0b66db1dd3c5de06c395",
        "gas": "0x15dd7",
        "value": "0x0",
        "input": "0x5678138840477a6ce4b39f156f7db8b31c91f05e51fb5cc8ef15e1b36b32841bc93830d90000000000000000000000000000000000000000000000000000000000000001",
        "nonce": "0x5d",
        "chainId": "0xaa36a7"
      },
      "additionalContracts": [],
      "isFixedGasLimit": false
    },
    {
      "hash": null,
      "transactionType": "CALL",
      "contractName": null,
      "contractAddress": "0x8da83ff5533e7842076f0b66db1dd3c5de06c395",
      "function": "castVote(uint256,uint8)",
      "arguments": [
        "29074313399741957111417415205399261343401142954546714851683434981440578138329",
        "1"
      ],
      "transaction": {
        "from": "0x1bfdb91b283d7ec24012d7ff5a5b29005140d09a",
        "to": "0x8da83ff5533e7842076f0b66db1dd3c5de06c395",
        "gas": "0x15dd7",
        "value": "0x0",
        "input": "0x5678138840477a6ce4b39f156f7db8b31c91f05e51fb5cc8ef15e1b36b32841bc93830d90000000000000000000000000000000000000000000000000000000000000001",
        "nonce": "0x0",
        "chainId": "0xaa36a7"
      },
      "additionalContracts": [],
      "isFixedGasLimit": false
    },
    {
      "hash": null,
      "transactionType": "CALL",
      "contractName": null,
      "contractAddress": "0x8da83ff5533e7842076f0b66db1dd3c5de06c395",
      "function": "castVote(uint256,uint8)",
      "arguments": [
        "29074313399741957111417415205399261343401142954546714851683434981440578138329",
        "1"
      ],
      "transaction": {
        "from": "0x328735d26e5ada93610f0006c32abe2278c46211",
        "to": "0x8da83ff5533e7842076f0b66db1dd3c5de06c395",
        "gas": "0x15dd7",
        "value": "0x0",
        "input": "0x5678138840477a6ce4b39f156f7db8b31c91f05e51fb5cc8ef15e1b36b32841bc93830d90000000000000000000000000000000000000000000000000000000000000001",
        "nonce": "0x1b46",
        "chainId": "0xaa36a7"
      },
      "additionalContracts": [],
      "isFixedGasLimit": false
    }
  ],
  "receipts": [
    {
      "status": "0x1",
      "cumulativeGasUsed": "0x128a5b3",
      "logs": [
        {
          "address": "0x8da83ff5533e7842076f0b66db1dd3c5de06c395",
          "topics": [
            "0xb5856a9700a7e851456d3a16348b4ae0fbb11b06ac0af8dbe8e8652c57cc4cbd",
            "0x40477a6ce4b39f156f7db8b31c91f05e51fb5cc8ef15e1b36b32841bc93830d9",
            "0x000000000000000000000000328735d26e5ada93610f0006c32abe2278c46211",
            "0x0000000000000000000000000000000000000000000000000000000000000002"
          ],
          "data": "0x00000000000000000000000000000000000000000000000000000000000000c000000000000000000000000000000000000000000000000000000000000000e00000000000000000000000000000000000000000000000000000000000a5043b0000000000000000000000000000000000000000000000000000000000a504540000000000000000000000000000000000000000000000000000001cbe970d35000000000000000000000000000000000000000000000000000000000000010000000000000000000000000000000000000000000000000000000000000000000000000000000000000000000000000000000000000000000000000000000000000000000000000000000000000000000000000000000000000000000000001d496e6974696174696e6720637265617465206964656173206c61796572000000",
          "blockHash": "0x22bbfc0d4d05431c9b7611d12eb38817f38050bafb9e96450217d7a6b8a1dcaf",
          "blockNumber": "0xa5043b",
          "blockTimestamp": "0x69fde3d8",
          "transactionHash": "0xdc58a0b2cab791ef62d19d31a4f091f9978a1fd03d377a9dceb8e5fb677c633a",
          "transactionIndex": "0x38",
          "logIndex": "0x1e2",
          "removed": false
        }
      ],
      "logsBloom": "0x04000000000000000000000000000000000000000000040000000000000000010000000000000000000000000000000000000000000000000000000000000000000000000000000000000800000000000000000000000000000000000000000000000000000000000000000000000000000000000001000000000000000000000000000000000000000200000000000000000000000000000000000000000000000000000000000000000100000000000000000000000000000000000000000000000000000000100000000000008004000000000000000100000000000000000100000000000020000000000000000000000000008000000000000040000000",
      "type": "0x2",
      "transactionHash": "0xdc58a0b2cab791ef62d19d31a4f091f9978a1fd03d377a9dceb8e5fb677c633a",
      "transactionIndex": "0x38",
      "blockHash": "0x22bbfc0d4d05431c9b7611d12eb38817f38050bafb9e96450217d7a6b8a1dcaf",
      "blockNumber": "0xa5043b",
      "gasUsed": "0x2ed05",
      "effectiveGasPrice": "0xf4259",
      "from": "0x328735d26e5ada93610f0006c32abe2278c46211",
      "to": "0x8da83ff5533e7842076f0b66db1dd3c5de06c395",
      "contractAddress": null
    },
    {
      "status": "0x1",
      "cumulativeGasUsed": "0xa6bc1c",
      "logs": [
        {
          "address": "0x8da83ff5533e7842076f0b66db1dd3c5de06c395",
          "topics": [
            "0x5be2678cab71c7d94235767eb1df3c57673f19e805cdc0edbd2e74854ae9f0f9",
            "0x000000000000000000000000ea223f81d7e74321370a77f1e44067be8738b627",
            "0x40477a6ce4b39f156f7db8b31c91f05e51fb5cc8ef15e1b36b32841bc93830d9",
            "0x0000000000000000000000000000000000000000000000000000000000000001"
          ],
          "data": "0x00000000000000000000000000000000000000000000000000000000000000200000000000000000000000000000000000000000000000000000000000000000",
          "blockHash": "0x56e6d3b9a3a6a863ab6784449dc527abf35641a565c22b6d4298a4d9323f4bcd",
          "blockNumber": "0xa5043c",
          "blockTimestamp": "0x69fde3e4",
          "transactionHash": "0x879f9f2cbb2b2c9c0083b1b6ef4b7dedf4aad5b63648f55971c94a94050c3b4f",
          "transactionIndex": "0x38",
          "logIndex": "0x12a",
          "removed": false
        }
      ],
      "logsBloom": "0x00000100000000000000000008000000000000000000040000000000000000010000000000000000001000000000000000000000000000000000000000040000000000000000000000000800000000000000000000040000000000000000000000000000000000000000000000000000000000000000000000000000000000000000000000000000000200000000000000000000000000000000000000002000000000000000000000000000001000000000000000000000000000000000000000000000000000100008000000000000000000000000000000000000000040000000000000000020000000000000000000000000000000000000000000000000",
      "type": "0x2",
      "transactionHash": "0x879f9f2cbb2b2c9c0083b1b6ef4b7dedf4aad5b63648f55971c94a94050c3b4f",
      "transactionIndex": "0x38",
      "blockHash": "0x56e6d3b9a3a6a863ab6784449dc527abf35641a565c22b6d4298a4d9323f4bcd",
      "blockNumber": "0xa5043c",
      "gasUsed": "0xfd48",
      "effectiveGasPrice": "0xf4259",
      "from": "0xea223f81d7e74321370a77f1e44067be8738b627",
      "to": "0x8da83ff5533e7842076f0b66db1dd3c5de06c395",
      "contractAddress": null
    }
  ],
  "libraries": [],
  "pending": [],
  "returns": {},
  "timestamp": 1778246640282,
  "chain": 11155111,
  "commit": "318fcb9"
}